:1000000017C03BC03AC039C038C037C036C035C051
:1000100034C033C032C06DC030C0AAC02EC02DC0A5
:100020002CC02BC02AC03F007E0180013E007F0112
:1000300011241FBECFE5D4E0DEBFCDBF10E0A0E6A7
:10004000B0E0EEE7F3E002C005900D92AC37B107E7
:10005000D9F710E0ACE7B0E001C01D92A739B107B5
:10006000E1F710E0CCE2D0E003C02297FE0177D1A7
:10007000C632D107D1F74DD176C1C2CF08958CE7F2
:1000800090E0909389008093880063E370E000C063
:10009000FC0177FF03C082E08BB97F7770BD69B93F
:1000A00088E98AB986E880BD158214821782168293
:1000B00011861086138612860895FC01DB01411516
:1000C000510539F06115710521F086819781892BE1
:1000D00011F080E00895578346837183608381E047
:1000E00090E09583848388E48AB98C918CB981E00F
:1000F00008951F920F920FB60F9211242F933F93E2
:100100008F939F93AF93BF93EF93FF93A09188003A
:10011000B091890018968D919C9119972CB11296E7
:10012000ED91FC911397E80FF91F20830196199622
:100130009C938E931897E0918800F0918900208518
:100140003185828593852817390729F4138612860D
:100150008AB18F768AB9FF91EF91BF91AF919F914C
:100160008F913F912F910F900FBE0F901F90189578
:100170001F920F920FB60F9211242F933F938F93DC
:100180009F93AF93BF93EF93FF93A0918800B0919B
:10019000890014962D913C91159716968D919C91FE
:1001A00017972817390741F417961C921E92169735
:1001B0008AB1877B8AB910C014968D919C9115974E
:1001C000ED91FC911197E80FF91F20812CB9019650
:1001D00015969C938E931497FF91EF91BF91AF91D9
:1001E0009F918F913F912F910F900FBE0F901F9075
:1001F00018951F93CF93DF939C01EB0140E0FE0124
:10020000E40FF11DC9016AE070E093D0805D808346
:10021000142F1F5FC9016AE070E08BD09B0161154C
:10022000710511F0412FEBCFFE01E10FF11D10829E
:1002300020E00BC0DE01A80FB11D9C91FE01E20F72
:10024000F11D80818C9390832F5F842F821B281750
:1002500088F3812FDF91CF911F910895AC0120E0A9
:1002600030E0FA01E20FF31F80812F5F3F4F8823B8
:10027000C1F7C9010895EF92FF920F931F93F82ED3
:10028000E92E8B01CB01EADFAC01415050408CE7F5
:1002900090E0B80112DF8091820090918300892B59
:1002A000D1F78F2D9E2D1F910F91FF90EF90089504
:1002B000EF92FF920F931F93DF93CF9300D000D064
:1002C00000D0CDB7DEB7F82EE92ECB018E010F5F3F
:1002D0001F4FB8018EDF8F2D9E2DB801CCDF8F2DE3
:1002E0009E2D26960FB6F894DEBF0FBECDBFCF91E0
:1002F000DF911F910F91FF90EF9008950895089559
:100300008BE890E0909389008093880063E370E02D
:10031000BFCE78948AE890E060E670E0ACDF6EE6ED
:1003200070E0A9DF6FE57CE1C3DF6AE770E0A3DF7F
:10033000FFCFAA1BBB1B51E107C0AA1FBB1FA617FB
:10034000B70710F0A61BB70B881F991F5A95A9F77E
:1003500080959095BC01CD010895EE0FFF1F05908B
:10036000F491E02D099410E0CCE2D0E003C0FE014E
:0E037000F6DF2296C033D107D1F7F894FFCF05
:10037E004920616D20612074657374200A007561D7
:0C038E00727454657374203D20000A0056
:00000001FF
